:020000040800F2
:100000000000022005850108558501085585010875
:100010005585010855850108558501080000000037
:1000200000000000000000000000000055850108ED
:10003000558501080000000055850108ED72010892
:100040005585010855850108558501085585010824
:100050005585010855850108558501085585010814
:100060005585010855850108558501085585010804
:1000700055850108558501085585010855850108F4
:1000800055850108558501085585010800000000C7
:10009000000000000000000000000000558501087D
:1000A00055850108558501085585010855850108C4
:1000B00055850108558501085585010855850108B4
:1000C00055850108558501085585010855850108A4
:1000D0005585010855850108558501080000000077
:1000E0005585010855850108558501080000000067
:1000F000000000000000000000000000558501081D
:100100000000000055850108558501085585010846
:1001100000000000000000000000000000000000DF
:100120005585010855850108558501085585010843
:1001300055850108000000000000000000000000DC
:1001400000000000000000000000000055850108CC
:100150005585010855850108558501085585010813
:1001600055850108558501080000000000000000C9
:10017000000000000000000000000000000000007F
:10018000000000005585010800000000000000008C
:080190005585010855850108A1
:1001A000A3F5803A704700BF174B002B08BF134BD5
:1001B0009D46FFF7F5FF00218B460F461348144A72
:1001C000121A19F081FB0E4B002B00D098470D4BF3
:1001D000002B00D098470020002104000D000D489E
:1001E000002802D00C48AFF3008018F0C7F92000B7
:1001F000290000F07DF918F0AFF900BF00000800F9
:10020000000000000000000000000000CC00002002
:100210004C070020000000000000000040D2010850
:1002200000000020CC000020CC0000204C07002063
:1002300001F0FF01102A2BDB10F0070F08D010F897
:10024000013B013A8B422DD010F0070F42B3F6D19B
:10025000F0B441EA012141EA014122F007047FF0B4
:1002600000070023F0E80256083C85EA010586EA0B
:10027000010685FA47F5A3FA87F586FA47F6A5FA47
:1002800087F68EB9EED1F0BC01F0FF0102F0070253
:1002900032B110F8013B013A83EA010313B1F8D1FE
:1002A0000020704701387047002D06BF35460338DF
:1002B000073815F0010F07D1013015F4807F02BF18
:1002C000013015F4C03F0130F0BC0138704700BF69
:1002D00053B94AB9002908BF00281CBF4FF0FF31AD
:1002E0004FF0FF3000F00CB8ADF1080C6DE904CE12
:1002F00019F04CFDDDF804E0DDE9022304B070479D
:10030000704700BF0348044B834202D0034B03B144
:1003100018477047CC000020CC00002000000000EF
:100320000548064B1B1AD90F01EBA301491002D057
:10033000034B03B118477047CC000020CC000020CD
:100340000000000010B5064C237843B9FFF7DAFF30
:10035000044B13B10448AFF300800123237010BD98
:10036000CC0000200000000048A0010808B5054BA3
:100370001BB105490548AFF30080BDE80840FFF711
:10038000CFBF00BF00000000D000002048A001083F
:1003900080B592B000AF3B1D184617F06CF90346CC
:1003A000002B03D14B4818F011FD90E03B1D18467F
:1003B00017F018F80346002B03D1474818F006FD44
:1003C00085E03B6A7A6A1946444818F009F94448BE
:1003D00018F0FCFC434818F0F9FC434818F0F6FC10
:1003E000424818F0F3FC00233B6100237B610023AB
:1003F000FB603B1D0833BB6101233B6415E00C200F
:1004000018F002FE0346BB63BB695B685A1CBB6BFA
:100410005A60BB699A68BB6B9A60BA69BB6B1A6019
:10042000BB6BBB613B6C01333B643B6ADA0F13442B
:100430005B101A463B6C9342E1DB0123FB6315E042
:100440000C2018F0E1FD0346BB63BB695A68BB6B27
:100450005A60BB699B685A1CBB6B9A60BA69BB6BDC
:100460001A60BB6BBB61FB6B0133FB637B6ADA0F0A
:1004700013445B101A46FB6B9342E1DB3B6A013B82
:100480007B607B6A013BBB603B1D184616F0D0FFCA
:1004900041F2883017F004F9BB697B6407E07B6C9C
:1004A0001B68BB63786C18F0B7FDBB6B7B647B6C1F
:1004B000002B04D03B1D08337A6C9A42EFD13B1DD0
:1004C000184616F0AAFF3B1D184617F0DFF848370C
:1004D000BD4680BDC4A10108D8A10108F0A1010852
:1004E0001CA2010838A2010874A20108C4A20108D4
:1004F00080B500AFFFF74CFF0023184680BD80B5E4
:1005000082B000AF78607B68002B01D1012341E00D
:100510007B6893F83D30DBB2002B06D17B6800226C
:1005200083F83C20786800F08DF87B68022283F81D
:100530003D207B681A687B6804331946104605F035
:10054000EBF87B68012283F846207B68012283F860
:100550003E207B68012283F83F207B68012283F8DC
:1005600040207B68012283F841207B68012283F8C8
:1005700042207B68012283F843207B68012283F8B4
:1005800044207B68012283F845207B68012283F8A0
:100590003D20002318460837BD4680BD80B582B097
:1005A00000AF78607B68022283F83D207B681B687F
:1005B0001A6A41F211131340002B0FD17B681B689C
:1005C0001A6A40F244431340002B07D17B681B6832
:1005D0001A687B681B6822F001021A60786800F0D4
:1005E0003BF87B68002283F846207B68002283F872
:1005F0003E207B68002283F83F207B68002283F83E
:1006000040207B68002283F841207B68002283F829
:1006100042207B68002283F843207B68002283F815
:1006200044207B68002283F845207B68002283F801
:100630003D207B68002283F83C20002318460837C1
:10064000BD4680BD80B483B000AF786000BF0C377A
:10065000BD465DF8047B704780B483B000AF78601E
:1006600000BF0C37BD465DF8047B704780B485B091
:1006700000AF78607B6893F83D30DBB2012B01D08E
:1006800001233CE07B68022283F83D207B681B68E5
:100690001E4A934218D07B681B68B3F1804F13D079
:1006A0007B681B681A4A93420ED07B681B68194A04
:1006B000934209D07B681B68174A934204D07B6839
:1006C0001B68164A934211D17B681B689B6803F034
:1006D0000703FB60FB68062B10D07B681B681A6859
:1006E0007B681B6842F001021A6007E07B681B68A8
:1006F0001A687B681B6842F001021A6000231846E2
:100700001437BD465DF8047B704700BF0000014010
:100710000004004000080040000C00400040014080
:1007200080B483B000AF78607B681B681A6A41F2BE
:1007300011131340002B0FD17B681B681A6A40F21B
:1007400044431340002B07D17B681B681A687B6801
:100750001B6822F001021A607B68012283F83D20A9
:10076000002318460C37BD465DF8047B7047000037
:1007700080B485B000AF78607B6893F83D30DBB221
:10078000012B01D0012344E07B68022283F83D2045
:100790007B681B68DA687B681B6842F00102DA60DC
:1007A0007B681B681E4A934218D07B681B68B3F1B4
:1007B000804F13D07B681B681A4A93420ED07B6827
:1007C0001B68194A934209D07B681B68174A9342F9
:1007D00004D07B681B68164A934211D17B681B6862
:1007E0009B6803F00703FB60FB68062B10D07B6857
:1007F0001B681A687B681B6842F001021A6007E0F8
:100800007B681B681A687B681B6842F001021A60EB
:10081000002318461437BD465DF8047B704700BFBF
:10082000000001400004004000080040000C0040AF
:100830000040014080B483B000AF78607B681B68E3
:10084000DA687B681B6822F00102DA607B681B684B
:100850001A6A41F211131340002B0FD17B681B68F9
:100860001A6A40F244431340002B07D17B681B688F
:100870001A687B681B6822F001021A607B680122FB
:1008800083F83D20002318460C37BD465DF8047BF5
:100890007047000080B586B000AFF860B9601346BD
:1008A000FB80FB6893F83D30DBB2022B01D10223C1
:1008B00070E0FB6893F83D30DBB2012B25D1BB68BB
:1008C000002B02D0FB88002B01D1012362E0FB68E2
:1008D000022283F83D20FB681B6A304ADA63FB681A
:1008E0001B6A2F4A1A64FB681B6A2E4ADA64FB688B
:1008F000186AB968FB681B682C331A46FB8813F02A
:10090000E2FB0346002B04D001E0012342E0012377
:1009100040E0FB681B68DA68FB681B6842F4807281
:10092000DA60FB681B68204A934218D0FB681B689A
:10093000B3F1804F13D0FB681B681C4A93420ED062
:10094000FB681B681A4A934209D0FB681B68194A66
:10095000934204D0FB681B68174A934211D1FB688D
:100960001B689B6803F007037B617B69062B10D033
:10097000FB681B681A68FB681B6842F001021A607A
:1009800007E0FB681B681A68FB681B6842F00102FD
:100990001A60002318461837BD4680BD85560008EA
:1009A000B3560008B35300080000014000040040A3
:1009B00000080040000C00400040014080B582B0BB
:1009C00000AF78607B681B68DA687B681B6822F47C
:1009D0008072DA607B681B6A184613F03CFC7B6807
:1009E0001B681A6A41F211131340002B0FD17B6868
:1009F0001B681A6A40F244431340002B07D17B68FE
:100A00001B681A687B681B6822F001021A607B6809
:100A1000012283F83D20002318460837BD4680BDDB
:100A200080B582B000AF78607B68002B01D10123D4
:100A300041E07B6893F83D30DBB2002B06D17B6848
:100A4000002283F83C20786800F08DF87B68022251
:100A500083F83D207B681A687B680433194610468A
:100A600004F05AFE7B68012283F846207B6801224D
:100A700083F83E207B68012283F83F207B680122B7
:100A800083F840207B68012283F841207B680122A3
:100A900083F842207B68012283F843207B6801228F
:100AA00083F844207B68012283F845207B6801227B
:100AB00083F83D20002318460837BD4680BD80B529
:100AC00082B000AF78607B68022283F83D207B68AB
:100AD0001B681A6A41F211131340002B0FD17B6877
:100AE0001B681A6A40F244431340002B07D17B680D
:100AF0001B681A687B681B6822F001021A6078681C
:100B000000F03BF87B68002283F846207B680022D7
:100B100083F83E207B68002283F83F207B68002218
:100B200083F840207B68002283F841207B68002204
:100B300083F842207B68002283F843207B680022F0
:100B400083F844207B68002283F845207B680022DC
:100B500083F83D207B68002283F83C200023184660
:100B60000837BD4680BD80B483B000AF786000BF59
:100B70000C37BD465DF8047B704780B483B000AF8E
:100B8000786000BF0C37BD465DF8047B70470000FD
:100B900080B584B000AF786039603B68002B09D124
:100BA0007B6893F83E30DBB2012B14BF0123002396
:100BB000DBB222E03B68042B09D17B6893F83F301D
:100BC000DBB2012B14BF01230023DBB215E03B682D
:100BD000082B09D17B6893F84030DBB2012B14BF9E
:100BE00001230023DBB208E07B6893F84130DBB2DD
:100BF000012B14BF01230023DBB2002B01D0012302
:100C000068E03B68002B04D17B68022283F83E2019
:100C100013E03B68042B04D17B68022283F83F2059
:100C20000BE03B68082B04D17B68022283F840204C
:100C300003E07B68022283F841207B681B68012265
:100C40003968184605F0C4F97B681B68234A93424B
:100C500007D17B681B685A6C7B681B6842F40042B2
:100C60005A647B681B681D4A934218D07B681B68D6
:100C7000B3F1804F13D07B681B68194A93420ED0A2
:100C80007B681B68174A934209D07B681B68164A29
:100C9000934204D07B681B68144A934211D17B684D
:100CA0001B689B6803F00703FB60FB68062B10D0F2
:100CB0007B681B681A687B681B6842F001021A6037
:100CC00007E07B681B681A687B681B6842F00102BA
:100CD0001A60002318461037BD4680BD0000014051
:100CE0000004004000080040000C004000400140AB
:100CF00080B582B000AF786039607B681B680022E5
:100D00003968184605F064F97B681B68294A9342E4
:100D100017D17B681B681A6A41F211131340002B2C
:100D20000FD17B681B681A6A40F244431340002BC2
:100D300007D17B681B685A6C7B681B6822F40042F1
:100D40005A647B681B681A6A41F211131340002B26
:100D50000FD17B681B681A6A40F244431340002B92
:100D600007D17B681B681A687B681B6822F0010248
:100D70001A603B68002B04D17B68012283F83E2077
:100D800013E03B68042B04D17B68012283F83F20E9
:100D90000BE03B68082B04D17B68012283F84020DC
:100DA00003E07B68012283F84120002318460837BE
:100DB000BD4680BD0000014080B584B000AF7860C2
:100DC00039600023FB733B68002B09D17B6893F8E3
:100DD0003E30DBB2012B14BF01230023DBB222E043
:100DE0003B68042B09D17B6893F83F30DBB2012BC1
:100DF00014BF01230023DBB215E03B68082B09D1A7
:100E00007B6893F84030DBB2012B14BF0123002331
:100E1000DBB208E07B6893F84130DBB2012B14BFF2
:100E200001230023DBB2002B01D00123B3E03B6898
:100E3000002B04D17B68022283F83E2013E03B683C
:100E4000042B04D17B68022283F83F200BE03B682F
:100E5000082B04D17B68022283F8402003E07B68E2
:100E6000022283F841203B680C2B41D801A252F8A2
:100E700023F000BFA90E0008F10E0008F10E0008D3
:100E8000F10E0008BB0E0008F10E0008F10E00087C
:100E9000F10E0008CD0E0008F10E0008F10E00085A
:100EA000F10E0008DF0E00087B681B68DA687B68BB
:100EB0001B6842F00202DA601DE07B681B68DA689A
:100EC0007B681B6842F00402DA6014E07B681B68F0
:100ED000DA687B681B6842F00802DA600BE07B6826
:100EE0001B68DA687B681B6842F01002DA6002E077
:100EF0000123FB7300BFFB7B002B4BD17B681B687E
:100F000001223968184605F063F87B681B68244A9B
:100F1000934207D17B681B685A6C7B681B6842F45C
:100F200000425A647B681B681D4A934218D07B6854
:100F30001B68B3F1804F13D07B681B68194A93423A
:100F40000ED07B681B68184A934209D07B681B68E7
:100F5000164A934204D07B681B68154A934211D10C
:100F60007B681B689B6803F00703BB60BB68062BAC
:100F700010D07B681B681A687B681B6842F001020E
:100F80001A6007E07B681B681A687B681B6842F080
:100F900001021A60FB7B18461037BD4680BD00BFBA
:100FA000000001400004004000080040000C004028
:100FB0000040014080B584B000AF78603960002304
:100FC000FB733B680C2B41D801A252F823F000BF01
:100FD000051000084D1000084D1000084D100008C5
:100FE000171000084D1000084D1000084D100008A3
:100FF000291000084D1000084D1000084D10000881
:101000003B1000087B681B68DA687B681B6822F06D
:101010000202DA601DE07B681B68DA687B681B6887
:1010200022F00402DA6014E07B681B68DA687B68EF
:101030001B6822F00802DA600BE07B681B68DA6844
:101040007B681B6822F01002DA6002E00123FB7368
:1010500000BFFB7B002B57D17B681B6800223968DF
:10106000184604F0B5FF7B681B682A4A934217D1E3
:101070007B681B681A6A41F211131340002B0FD1D1
:101080007B681B681A6A40F244431340002B07D167
:101090007B681B685A6C7B681B6822F400425A64A8
:1010A0007B681B681A6A41F211131340002B0FD1A1
:1010B0007B681B681A6A40F244431340002B07D137
:1010C0007B681B681A687B681B6822F001021A6043
:1010D0003B68002B04D17B68012283F83E2013E09B
:1010E0003B68042B04D17B68012283F83F200BE08E
:1010F0003B68082B04D17B68012283F8402003E081
:101100007B68012283F84120FB7B18461037BD46DF
:1011100080BD00BF0000014080B586B000AFF86020
:10112000B9607A607B800023FB75BB68002B09D116
:10113000FB6893F83E30DBB2022B0CBF0123002387
:10114000DBB222E0BB68042B09D1FB6893F83F3087
:10115000DBB2022B0CBF01230023DBB215E0BB681E
:10116000082B09D1FB6893F84030DBB2022B0CBF8F
:1011700001230023DBB208E0FB6893F84130DBB2C7
:10118000022B0CBF01230023DBB2002B01D0022372
:101190005DE1BB68002B09D1FB6893F83E30DBB200
:1011A000012B0CBF01230023DBB222E0BB68042B20
:1011B00009D1FB6893F83F30DBB2012B0CBF012350
:1011C0000023DBB215E0BB68082B09D1FB6893F85C
:1011D0004030DBB2012B0CBF01230023DBB208E05F
:1011E000FB6893F84130DBB2012B0CBF01230023D5
:1011F000DBB2002B24D07B68002B02D07B88002B35
:1012000001D1012323E1BB68002B04D1FB6802223A
:1012100083F83E2016E0BB68042B04D1FB68022251
:1012200083F83F200EE0BB68082B04D1FB68022244
:1012300083F8402006E0FB68022283F8412001E0A9
:10124000012304E1BB680C2B00F2AE8001A252F82E
:1012500023F000BF89120008A9130008A913000891
:10126000A9130008D1120008A9130008A913000847
:10127000A913000819130008A9130008A9130008EE
:10128000A913000861130008FB685B6A724ADA63FD
:10129000FB685B6A714A1A64FB685B6A704ADA64CD
:1012A000FB68586A7968FB681B6834331A467B8888
:1012B00012F009FF0346002B01D00123C7E0FB68B1
:1012C0001B68DA68FB681B6842F40072DA606EE043
:1012D000FB689B6A604ADA63FB689B6A5F4A1A6430
:1012E000FB689B6A5E4ADA64FB68986A7968FB6807
:1012F0001B6838331A467B8812F0E5FE0346002B44
:1013000001D00123A3E0FB681B68DA68FB681B6857
:1013100042F48062DA604AE0FB68DB6A4E4ADA63D4
:10132000FB68DB6A4D4A1A64FB68DB6A4C4ADA6484
:10133000FB68D86A7968FB681B683C331A467B886F
:1013400012F0C1FE0346002B01D001237FE0FB68B1
:101350001B68DA68FB681B6842F40062DA6026E00A
:10136000FB681B6B3C4ADA63FB681B6B3B4A1A64E5
:10137000FB681B6B3A4ADA64FB68186B7968FB6898
:101380001B6840331A467B8812F09DFE0346002BF3
:1013900001D001235BE0FB681B68DA68FB681B680F
:1013A00042F48052DA6002E00123FB7500BFFB7D4E
:1013B000002B4BD1FB681B680122B968184604F06A
:1013C00007FEFB681B68274A934207D1FB681B682E
:1013D0005A6CFB681B6842F400425A64FB681B6845
:1013E000204A934218D0FB681B68B3F1804F13D09A
:1013F000FB681B681C4A93420ED0FB681B681B4AA3
:10140000934209D0FB681B68194A934204D0FB68D9
:101410001B68184A934211D1FB681B689B6803F054
:1014200007033B613B69062B10D0FB681B681A68F9
:10143000FB681B6842F001021A6007E0FB681B684A
:101440001A68FB681B6842F001021A60FB7D1846AF
:101450001837BD4680BD00BF45540008ED54000854
:10146000B3530008000001400004004000080040A1
:10147000000C00400040014080B584B000AF7860AF
:1014800039600023FB733B680C2B55D801A252F83E
:1014900023F000BFC91400083915000839150008E9
:1014A00039150008E5140008391500083915000839
:1014B000391500080115000839150008391500080C
:1014C000391500081D1500087B681B68DA687B6801
:1014D0001B6822F40072DA607B685B6A184612F0BF
:1014E000BAFE2CE07B681B68DA687B681B6822F414
:1014F0008062DA607B689B6A184612F0ACFE1EE0E0
:101500007B681B68DA687B681B6822F40062DA601B
:101510007B68DB6A184612F09EFE10E07B681B6851
:10152000DA687B681B6822F48052DA607B681B6B88
:10153000184612F090FE02E00123FB7300BFFB7B14
:10154000002B57D17B681B6800223968184604F0CD
:101550003FFD7B681B682A4A934217D17B681B6852
:101560001A6A41F211131340002B0FD17B681B68DC
:101570001A6A40F244431340002B07D17B681B6872
:101580005A6C7B681B6822F400425A647B681B68B3
:101590001A6A41F211131340002B0FD17B681B68AC
:1015A0001A6A40F244431340002B07D17B681B6842
:1015B0001A687B681B6822F001021A603B68002BE6
:1015C00004D17B68012283F83E2013E03B68042BA2
:1015D00004D17B68012283F83F200BE03B68082B95
:1015E00004D17B68012283F8402003E07B6801225C
:1015F00083F84120FB7B18461037BD4680BD00BFF5
:101600000000014080B582B000AF78607B68002B9D
:1016100001D1012341E07B6893F83D30DBB2002B20
:1016200006D17B68002283F83C20786800F08DF8B2
:101630007B68022283F83D207B681A687B6804334C
:101640001946104604F068F87B68012283F84620AA
:101650007B68012283F83E207B68012283F83F20CB
:101660007B68012283F840207B68012283F84120B7
:101670007B68012283F842207B68012283F84320A3
:101680007B68012283F844207B68012283F845208F
:101690007B68012283F83D20002318460837BD46A9
:1016A00080BD80B582B000AF78607B68022283F88D
:1016B0003D207B681B681A6A41F211131340002B0E
:1016C0000FD17B681B681A6A40F244431340002B19
:1016D00007D17B681B681A687B681B6822F00102CF
:1016E0001A60786800F03BF87B68002283F8462097
:1016F0007B68002283F83E207B68002283F83F202D
:101700007B68002283F840207B68002283F8412018
:101710007B68002283F842207B68002283F8432004
:101720007B68002283F844207B68002283F84520F0
:101730007B68002283F83D207B68002283F83C20F0
:10174000002318460837BD4680BD80B483B000AF83
:10175000786000BF0C37BD465DF8047B704780B4ED
:1017600083B000AF786000BF0C37BD465DF8047BE6
:101770007047000080B584B000AF786039603B6886
:10178000002B09D17B6893F83E30DBB2012B14BFEC
:1017900001230023DBB222E03B68042B09D17B68E4
:1017A00093F83F30DBB2012B14BF01230023DBB2DF
:1017B00015E03B68082B09D17B6893F84030DBB219
:1017C000012B14BF01230023DBB208E07B6893F8F0
:1017D0004130DBB2012B14BF01230023DBB2002B0D
:1017E00001D0012368E03B68002B04D17B68022212
:1017F00083F83E2013E03B68042B04D17B6802226F
:1018000083F83F200BE03B68082B04D17B68022261
:1018100083F8402003E07B68022283F841207B6844
:101820001B6801223968184604F0D2FB7B681B68EC
:10183000234A934207D17B681B685A6C7B681B68FC
:1018400042F400425A647B681B681D4A934218D0D8
:101850007B681B68B3F1804F13D07B681B68194A03
:1018600093420ED07B681B68174A934209D07B686D
:101870001B68164A934204D07B681B68144A934243
:1018800011D17B681B689B6803F00703FB60FB6852
:10189000062B10D07B681B681A687B681B6842F0B7
:1018A00001021A6007E07B681B681A687B681B6886
:1018B00042F001021A60002318461037BD4680BD71
:1018C000000001400004004000080040000C0040FF
:1018D0000040014080B582B000AF786039607B681D
:1018E0001B6800223968184604F072FB7B681B688D
:1018F000294A934217D17B681B681A6A41F2111377
:101900001340002B0FD17B681B681A6A40F24443D6
:101910001340002B07D17B681B685A6C7B681B68DF
:1019200022F400425A647B681B681A6A41F2111360
:101930001340002B0FD17B681B681A6A40F24443A6
:101940001340002B07D17B681B681A687B681B68F3
:1019500022F001021A603B68002B04D17B6801224F
:1019600083F83E2013E03B68042B04D17B680122FE
:1019700083F83F200BE03B68082B04D17B680122F1
:1019800083F8402003E07B68012283F84120002394
:1019900018460837BD4680BD0000014080B584B0C0
:1019A00000AF786039600023FB733B68002B09D1DE
:1019B0007B6893F83E30DBB2012B14BF0123002378
:1019C000DBB222E03B68042B09D17B6893F83F30FF
:1019D000DBB2012B14BF01230023DBB215E03B680F
:1019E000082B09D17B6893F84030DBB2012B14BF80
:1019F00001230023DBB208E07B6893F84130DBB2BF
:101A0000012B14BF01230023DBB2002B01D00123E3
:101A1000B3E03B68002B04D17B68022283F83E20B0
:101A200013E03B68042B04D17B68022283F83F203B
:101A30000BE03B68082B04D17B68022283F840202E
:101A400003E07B68022283F841203B680C2B41D8DD
:101A500001A252F823F000BF8D1A0008D51A000821
:101A6000D51A0008D51A00089F1A0008D51A0008D0
:101A7000D51A0008D51A0008B11A0008D51A0008AE
:101A8000D51A0008D51A0008C31A00087B681B681D
:101A9000DA687B681B6842F00202DA601DE07B684E
:101AA0001B68DA687B681B6842F00402DA6014E0A5
:101AB0007B681B68DA687B681B6842F00802DA60A2
:101AC0000BE07B681B68DA687B681B6842F01002D9
:101AD000DA6002E00123FB7300BFFB7B002B4BD1DC
:101AE0007B681B6801223968184604F071FA7B682C
:101AF0001B68244A934207D17B681B685A6C7B6839
:101B00001B6842F400425A647B681B681D4A93427A
:101B100018D07B681B68B3F1804F13D07B681B68BB
:101B2000194A93420ED07B681B68184A934209D029
:101B30007B681B68164A934204D07B681B68154A71
:101B4000934211D17B681B689B6803F00703BB605D
:101B5000BB68062B10D07B681B681A687B681B6803
:101B600042F001021A6007E07B681B681A687B6814
:101B70001B6842F001021A60FB7B18461037BD4615
:101B800080BD00BF0000014000040040000800408C
:101B9000000C00400040014080B584B000AF786088
:101BA00039600023FB733B680C2B41D801A252F82B
:101BB00023F000BFE91B0008311C0008311C00089D
:101BC000311C0008FB1B0008311C0008311C0008F8
:101BD000311C00080D1C0008311C0008311C0008D5
:101BE000311C00081F1C00087B681B68DA687B68D2
:101BF0001B6822F00202DA601DE07B681B68DA686D
:101C00007B681B6822F00402DA6014E07B681B68C2
:101C1000DA687B681B6822F00802DA600BE07B68F8
:101C20001B68DA687B681B6822F01002DA6002E049
:101C30000123FB7300BFFB7B002B57D17B681B6824
:101C400000223968184604F0C3F97B681B682A4AE9
:101C5000934217D17B681B681A6A41F21113134033
:101C6000002B0FD17B681B681A6A40F24443134073
:101C7000002B07D17B681B685A6C7B681B6822F4B9
:101C800000425A647B681B681A6A41F211131340C0
:101C9000002B0FD17B681B681A6A40F24443134043
:101CA000002B07D17B681B681A687B681B6822F0D1
:101CB00001021A603B68002B04D17B68012283F883
:101CC0003E2013E03B68042B04D17B68012283F89B
:101CD0003F200BE03B68082B04D17B68012283F88E
:101CE000402003E07B68012283F84120FB7B1846FB
:101CF0001037BD4680BD00BF0000014080B586B0F2
:101D000000AFF860B9607A607B800023FB75BB6828
:101D1000002B09D1FB6893F83E30DBB2022B0CBFDD
:101D200001230023DBB222E0BB68042B09D1FB684E
:101D300093F83F30DBB2022B0CBF01230023DBB250
:101D400015E0BB68082B09D1FB6893F84030DBB283
:101D5000022B0CBF01230023DBB208E0FB6893F8E1
:101D60004130DBB2022B0CBF01230023DBB2002B7E
:101D700001D002235DE1BB68002B09D1FB6893F819
:101D80003E30DBB2012B0CBF01230023DBB222E08B
:101D9000BB68042B09D1FB6893F83F30DBB2012B01
:101DA0000CBF01230023DBB215E0BB68082B09D16F
:101DB000FB6893F84030DBB2012B0CBF01230023FA
:101DC000DBB208E0FB6893F84130DBB2012B0CBFBB
:101DD00001230023DBB2002B24D07B68002B02D030
:101DE0007B88002B01D1012323E1BB68002B04D1A8
:101DF000FB68022283F83E2016E0BB68042B04D166
:101E0000FB68022283F83F200EE0BB68082B04D158
:101E1000FB68022283F8402006E0FB68022283F878
:101E2000412001E0012304E1BB680C2B00F2AE80ED
:101E300001A252F823F000BF6D1E00088D1F00089C
:101E40008D1F00088D1F0008B51E00088D1F00089B
:101E50008D1F00088D1F0008FD1E00088D1F000843
:101E60008D1F00088D1F0008451F0008FB685B6A76
:101E7000724ADA63FB685B6A714A1A64FB685B6AE0
:101E8000704ADA64FB68586A7968FB681B68343307
:101E90001A467B8812F017F90346002B01D0012364
:101EA000C7E0FB681B68DA68FB681B6842F40072D5
:101EB000DA606EE0FB689B6A604ADA63FB689B6AE3
:101EC0005F4A1A64FB689B6A5E4ADA64FB68986A38
:101ED0007968FB681B6838331A467B8812F0F3F880
:101EE0000346002B01D00123A3E0FB681B68DA68DE
:101EF000FB681B6842F48062DA604AE0FB68DB6AD8
:101F00004E4ADA63FB68DB6A4D4A1A64FB68DB6A97
:101F10004C4ADA64FB68D86A7968FB681B683C3312
:101F20001A467B8812F0CFF80346002B01D001231C
:101F30007FE0FB681B68DA68FB681B6842F400629C
:101F4000DA6026E0FB681B6B3C4ADA63FB681B6BBC
:101F50003B4A1A64FB681B6B3A4ADA64FB68186BED
:101F60007968FB681B6840331A467B8812F0ABF82F
:101F70000346002B01D001235BE0FB681B68DA6895
:101F8000FB681B6842F48052DA6002E00123FB75B3
:101F900000BFFB7D002B4BD1FB681B680122B96899
:101FA000184604F015F8FB681B68274A934207D1CE
:101FB000FB681B685A6CFB681B6842F400425A6459
:101FC000FB681B68204A934218D0FB681B68B3F17A
:101FD000804F13D0FB681B681C4A93420ED0FB68ED
:101FE0001B681B4A934209D0FB681B68194A93423D
:101FF00004D0FB681B68184A934211D1FB681B6828
:102000009B6803F007033B613B69062B10D0FB681C
:102010001B681A68FB681B6842F001021A6007E03F
:10202000FB681B681A68FB681B6842F001021A60B3
:10203000FB7D18461837BD4680BD00BF45540008DB
:10204000ED540008B35300080000014000040040B4
:1020500000080040000C00400040014080B584B002
:1020600000AF786039600023FB733B680C2B55D8B8
:1020700001A252F823F000BFAD2000081D21000886
:102080001D2100081D210008C92000081D2100088D
:102090001D2100081D210008E52000081D21000861
:1020A0001D2100081D210008012100087B681B6814
:1020B000DA687B681B6822F40072DA607B685B6A0E
:1020C000184612F0C8F82CE07B681B68DA687B6859
:1020D0001B6822F48062DA607B689B6A184612F003
:1020E000BAF81EE07B681B68DA687B681B6822F41C
:1020F0000062DA607B68DB6A184612F0ACF810E028
:102100007B681B68DA687B681B6822F48052DA609F
:102110007B681B6B184612F09EF802E00123FB73EC
:1021200000BFFB7B002B57D17B681B6800223968FE
:10213000184603F04DFF7B681B682A4A934217D16B
:102140007B681B681A6A41F211131340002B0FD1F0
:102150007B681B681A6A40F244431340002B07D186
:102160007B681B685A6C7B681B6822F400425A64C7
:102170007B681B681A6A41F211131340002B0FD1C0
:102180007B681B681A6A40F244431340002B07D156
:102190007B681B681A687B681B6822F001021A6062
:1021A0003B68002B04D17B68012283F83E2013E0BA
:1021B0003B68042B04D17B68012283F83F200BE0AD
:1021C0003B68082B04D17B68012283F8402003E0A0
:1021D0007B68012283F84120FB7B18461037BD46FF
:1021E00080BD00BF0000014080B582B000AF7860C4
:1021F0007B68002B01D1012341E07B6893F83D30DF
:10220000DBB2002B06D17B68002283F83C20786883
:1022100000F08DF87B68022283F83D207B681A6805
:102220007B6804331946104603F076FA7B68012276
:1022300083F846207B68012283F83E207B680122D8
:1022400083F83F207B68012283F840207B680122CD
:1022500083F841207B68012283F842207B680122B9
:1022600083F843207B68012283F844207B680122A5
:1022700083F845207B68012283F83D20002318461F
:102280000837BD4680BD80B582B000AF78607B68FE
:10229000022283F83D207B681B681A6A41F2111301
:1022A0001340002B0FD17B681B681A6A40F244432D
:1022B0001340002B07D17B681B681A687B681B687A
:1022C00022F001021A60786800F03BF87B68002277
:1022D00083F846207B68002283F83E207B6800223A
:1022E00083F83F207B68002283F840207B6800222F
:1022F00083F841207B68002283F842207B6800221B
:1023000083F843207B68002283F844207B68002206
:1023100083F845207B68002283F83D207B680022FB
:1023200083F83C20002318460837BD4680BD80B4A2
:1023300083B000AF786000BF0C37BD465DF8047B0A
:10234000704780B483B000AF786000BF0C37BD46E3
:102350005DF8047B7047000080B584B000AF786002
:1023600039603B68002B04D17B6893F83E30DBB2C8
:1023700013E03B68042B04D17B6893F83F30DBB259
:102380000BE03B68082B04D17B6893F84030DBB24C
:1023900003E07B6893F84130DBB2FB733B68002BB2
:1023A00004D17B6893F84230DBB213E03B68042B26
:1023B00004D17B6893F84330DBB20BE03B68082B19
:1023C00004D17B6893F84430DBB203E07B6893F878
:1023D0004530DBB2BB73FB7B012B02D1BB7B012BF6
:1023E00001D0012377E03B68002B04D17B680222F7
:1023F00083F83E2013E03B68042B04D17B68022263
:1024000083F83F200BE03B68082B04D17B68022255
:1024100083F8402003E07B68022283F841203B6878
:10242000002B04D17B68022283F8422013E03B6832
:10243000042B04D17B68022283F843200BE03B6825
:10244000082B04D17B68022283F8442003E07B68D8
:10245000022283F845207B681B68012239681846F0
:1024600003F0B6FD7B681B681D4A934218D07B6859
:102470001B68B3F1804F13D07B681B68194A9342E5
:102480000ED07B681B68184A934209D07B681B6892
:10249000164A934204D07B681B68154A934211D1B7
:1024A0007B681B689B6803F00703BB60BB68062B57
:1024B00010D07B681B681A687B681B6842F00102B9
:1024C0001A6007E07B681B681A687B681B6842F02B
:1024D00001021A60002318461037BD4680BD00BFB8
:1024E000000001400004004000080040000C0040D3
:1024F0000040014080B582B000AF786039607B68F1
:102500001B6800223968184603F062FD7B681B686F
:102510001A6A41F211131340002B0FD17B681B681C
:102520001A6A40F244431340002B07D17B681B68B2
:102530001A687B681B6822F001021A603B68002B56
:1025400004D17B68012283F83E2013E03B68042B12
:1025500004D17B68012283F83F200BE03B68082B05
:1025600004D17B68012283F8402003E07B680122CC
:1025700083F841203B68002B04D17B68012283F85B
:10258000422013E03B68042B04D17B68012283F8CE
:1025900043200BE03B68082B04D17B68012283F8C1
:1025A000442003E07B68012283F84520002318467D
:1025B0000837BD4680BD000080B584B000AF7860AC
:1025C00039600023FB733B68002B04D17B6893F8D0
:1025D0003E30DBB213E03B68042B04D17B6893F8F8
:1025E0003F30DBB20BE03B68082B04D17B6893F8EB
:1025F0004030DBB203E07B6893F84130DBB2BB7361
:102600003B68002B04D17B6893F84230DBB213E0C7
:102610003B68042B04D17B6893F84330DBB20BE0BA
:102620003B68082B04D17B6893F84430DBB203E0AD
:102630007B6893F84530DBB27B73BB7B012B02D107
:102640007B7B012B01D00123C2E03B68002B04D12E
:102650007B68022283F83E2013E03B68042B04D100
:102660007B68022283F83F200BE03B68082B04D1F3
:102670007B68022283F8402003E07B68022283F813
:1026800041203B68002B04D17B68022283F8422062
:1026900013E03B68042B04D17B68022283F84320BB
:1026A0000BE03B68082B04D17B68022283F84420AE
:1026B00003E07B68022283F845203B680C2B41D85D
:1026C00001A252F823F000BFFD26000845270008AC
:1026D00045270008452700080F2700084527000860
:1026E000452700084527000821270008452700083E
:1026F0004527000845270008332700087B681B682A
:10270000DA687B681B6842F00202DA601DE07B68D1
:102710001B68DA687B681B6842F00402DA6014E028
:102720007B681B68DA687B681B6842F00802DA6025
:102730000BE07B681B68DA687B681B6842F010025C
:10274000DA6002E00123FB7300BFFB7B002B3ED16C
:102750007B681B6801223968184603F039FC7B68E6
:102760001B681D4A934218D07B681B68B3F1804FE9
:1027700013D07B681B68194A93420ED07B681B6894
:10278000174A934209D07B681B68164A934204D0CB
:102790007B681B68144A934211D17B681B689B6855
:1027A00003F00703BB60BB68062B10D07B681B6877
:1027B0001A687B681B6842F001021A6007E07B68B8
:1027C0001B681A687B681B6842F001021A60FB7B79
:1027D00018461037BD4680BD00000140000400408F
:1027E00000080040000C00400040014080B584B06B
:1027F00000AF786039600023FB733B680C2B41D835
:1028000001A252F823F000BF3D28000885280008E7
:1028100085280008852800084F280008852800081A
:1028200085280008852800086128000885280008F8
:102830008528000885280008732800087B681B6825
:10284000DA687B681B6822F00202DA601DE07B68B0
:102850001B68DA687B681B6822F00402DA6014E007
:102860007B681B68DA687B681B6822F00802DA6004
:102870000BE07B681B68DA687B681B6822F010023B
:10288000DA6002E00123FB7300BFFB7B002B56D113
:102890007B681B6800223968184603F099FB7B6847
:1028A0001B681A6A41F211131340002B0FD17B6889
:1028B0001B681A6A40F244431340002B07D17B681F
:1028C0001B681A687B681B6822F001021A603B686B
:1028D000002B04D17B68012283F83E2013E03B6883
:1028E000042B04D17B68012283F83F200BE03B6876
:1028F000082B04D17B68012283F8402003E07B6829
:10290000012283F841203B68002B04D17B6801221F
:1029100083F8422013E03B68042B04D17B6801223A
:1029200083F843200BE03B68082B04D17B6801222D
:1029300083F8442003E07B68012283F84520FB7B79
:1029400018461037BD4680BD80B586B000AFF86030
:10295000B9607A607B800023FB75BB68002B04D1D3
:10296000FB6893F83E30DBB213E0BB68042B04D164
:10297000FB6893F83F30DBB20BE0BB68082B04D157
:10298000FB6893F84030DBB203E0FB6893F841301A
:10299000DBB2BB75BB68002B04D1FB6893F84230F7
:1029A000DBB213E0BB68042B04D1FB6893F843301F
:1029B000DBB20BE0BB68082B04D1FB6893F8443012
:1029C000DBB203E0FB6893F84530DBB27B75BB7D7F
:1029D000022B02D07B7D022B01D102233CE1BB7D87
:1029E000012B43D17B7D012B40D17B68002B02D092
:1029F0007B88002B01D101232EE1BB68002B04D181
:102A0000FB68022283F83E2013E0BB68042B04D14C
:102A1000FB68022283F83F200BE0BB68082B04D13F
:102A2000FB68022283F8402003E0FB68022283F85F
:102A30004120BB68002B04D1FB68022283F84220AE
:102A400016E0BB68042B04D1FB68022283F8432004
:102A50000EE0BB68082B04D1FB68022283F84420F7
:102A600006E0FB68022283F8452001E00123F3E041
:102A7000FB681B680122B968184603F0A9FABB6815
:102A80000C2B00F2AD8001A252F823F0C12A0008FD
:102A9000E12B0008E12B0008E12B0008092B0008BE
:102AA000E12B0008E12B0008E12B0008512B000866
:102AB000E12B0008E12B0008E12B0008992B00080E
:102AC000FB685B6A664ADA63FB685B6A654A1A649C
:102AD000FB685B6A644ADA64FB68586AFB681B68D7
:102AE000343319467A687B8811F0EDFA0346002BDF
:102AF00001D00123B0E0FB681B68DA68FB681B6843
:102B000042F40072DA606EE0FB689B6A544ADA6352
:102B1000FB689B6A534A1A64FB689B6A524ADA64F0
:102B2000FB68986AFB681B68383319467A687B88AB
:102B300011F0C9FA0346002B01D001238CE0FB6899
:102B40001B68DA68FB681B6842F48062DA604AE05E
:102B5000FB68DB6A424ADA63FB68DB6A414A1A6453
:102B6000FB68DB6A404ADA64FB68D86AFB681B686A
:102B70003C3319467A687B8811F0A5FA0346002B8E
:102B800001D0012368E0FB681B68DA68FB681B68FA
:102B900042F40062DA6026E0FB681B6B304ADA63BD
:102BA000FB681B6B2F4A1A64FB681B6B2E4ADA64A6
:102BB000FB68186BFB681B68403319467A687B8892
:102BC00011F081FA0346002B01D0012344E0FB6899
:102BD0001B68DA68FB681B6842F48052DA6002E026
:102BE0000123FB7500BFFB681B68204A934218D085
:102BF000FB681B68B3F1804F13D0FB681B681C4A4D
:102C000093420ED0FB681B681A4A934209D0FB68B6
:102C10001B68194A934204D0FB681B68174A934209
:102C200011D1FB681B689B6803F007033B613B699C
:102C3000062B10D0FB681B681A68FB681B6842F003
:102C400001021A6007E0FB681B681A68FB681B68D2
:102C500042F001021A60FB7D18461837BD4680BD60
:102C6000555500081D560008B353000800000140E8
:102C70000004004000080040000C004000400140FB
:102C800080B584B000AF786039600023FB737B6847
:102C90001B6800223968184603F09AF93B680C2B30
:102CA00054D801A252F823F0DD2C00084D2D000865
:102CB0004D2D00084D2D0008F92C00084D2D000861
:102CC0004D2D00084D2D0008152D00084D2D000834
:102CD0004D2D00084D2D0008312D00087B681B6824
:102CE000DA687B681B6822F40072DA607B685B6AD2
:102CF000184611F0B0FA2CE07B681B68DA687B6834
:102D00001B6822F48062DA607B689B6A184611F0C7
:102D1000A2FA1EE07B681B68DA687B681B6822F4F5
:102D20000062DA607B68DB6A184611F094FA10E002
:102D30007B681B68DA687B681B6822F48052DA6063
:102D40007B681B6B184611F086FA02E00123FB73C7
:102D500000BFFB7B002B4FD17B681B681A6A41F2D6
:102D600011131340002B0FD17B681B681A6A40F2C5
:102D700044431340002B07D17B681B681A687B68AB
:102D80001B6822F001021A603B68002B04D17B68AB
:102D9000012283F83E2013E03B68042B04D17B68BA
:102DA000012283F83F200BE03B68082B04D17B68AD
:102DB000012283F8402003E07B68012283F8412050
:102DC0003B68002B04D17B68012283F8422013E08A
:102DD0003B68042B04D17B68012283F843200BE07D
:102DE0003B68082B04D17B68012283F8442003E070
:102DF0007B68012283F84520FB7B18461037BD46CF
:102E000080BD00BF80B582B000AF786039607B685C
:102E1000002B01D1012341E07B6893F83D30DBB208
:102E2000002B06D17B68002283F83C20786800F0F4
:102E30007DF87B68022283F83D207B681A687B68F6
:102E400004331946104602F067FC7B681B681A6859
:102E50007B681B6822F008021A607B681B6819688F
:102E60007B681B683A680A431A607B68012283F812
:102E700046207B68012283F83E207B68012283F88C
:102E80003F207B68012283F842207B68012283F87F
:102E900043207B68012283F83D2000231846083731
:102EA000BD4680BD80B582B000AF78607B680222ED
:102EB00083F83D207B681B681A6A41F211131340A6
:102EC000002B0FD17B681B681A6A40F24443134001
:102ED000002B07D17B681B681A687B681B6822F08F
:102EE00001021A60786800F02BF87B68002283F8F2
:102EF00046207B68002283F83E207B68002283F80E
:102F00003F207B68002283F842207B68002283F800
:102F100043207B68002283F83D207B68002283F8F1
:102F20003C20002318460837BD4680BD80B483B0DE
:102F300000AF786000BF0C37BD465DF8047B70477A
:102F400080B483B000AF786000BF0C37BD465DF839
:102F5000047B704780B584B000AF786039607B68CF
:102F600093F83E30FB737B6893F83F30BB737B680C
:102F700093F842307B737B6893F843303B73FB7B61
:102F8000012B08D1BB7B012B05D17B7B012B02D10F
:102F90003B7B012B01D001232BE07B68022283F8CD
:102FA0003E207B68022283F83F207B68022283F860
:102FB00042207B68022283F843207B681B68012241
:102FC0000021184603F004F87B681B6801220421E5
:102FD000184602F0FDFF7B681B68084A934207D140
:102FE0007B681B685A6C7B681B6842F400425A6419
:102FF000002318461037BD4680BD00BF00000140C9
:1030000080B582B000AF786039607B681B680022B1
:103010000021184602F0DCFF7B681B6800220421B7
:10302000184602F0D5FF7B681B68244A934217D1EB
:103030007B681B681A6A41F211131340002B0FD1F1
:103040007B681B681A6A40F244431340002B07D187
:103050007B681B685A6C7B681B6822F400425A64C8
:103060007B681B681A6A41F211131340002B0FD1C1
:103070007B681B681A6A40F244431340002B07D157
:103080007B681B681A687B681B6822F001021A6063
:103090007B68012283F83E207B68012283F83F2071
:1030A0007B68012283F842207B68012283F8432059
:1030B000002318460837BD4680BD00BF0000014010
:1030C00080B584B000AF786039607B6893F83E309B
:1030D000FB737B6893F83F30BB737B6893F8423097
:1030E0007B737B6893F843303B73FB7B012B08D1E8
:1030F000BB7B012B05D17B7B012B02D13B7B012BC1
:1031000001D001233BE07B68022283F83E207B68EC
:10311000022283F83F207B68022283F842207B68EA
:10312000022283F843207B681B68DA687B681B688F
:1031300042F00202DA607B681B68DA687B681B6811
:1031400042F00402DA607B681B6801220021184605
:1031500002F03EFF7B681B6801220421184602F042
:1031600037FF7B681B68084A934207D17B681B685E
:103170005A6C7B681B6842F400425A64002318466C
:103180001037BD4680BD00BF0000014080B582B051
:1031900000AF786039607B681B68DA687B681B6801
:1031A00022F00202DA607B681B68DA687B681B68C1
:1031B00022F00402DA607B681B68002200211846B6
:1031C00002F006FF7B681B6800220421184602F00B
:1031D000FFFE7B681B68244A934217D17B681B68FB
:1031E0001A6A41F211131340002B0FD17B681B6840
:1031F0001A6A40F244431340002B07D17B681B68D6
:103200005A6C7B681B6822F400425A647B681B6816
:103210001A6A41F211131340002B0FD17B681B680F
:103220001A6A40F244431340002B07D17B681B68A5
:103230001A687B681B6822F001021A607B68012211
:1032400083F83E207B68012283F83F207B680122BF
:1032500083F842207B68012283F84320002318462C
:103260000837BD4680BD00BF0000014080B586B074
:1032700000AF786039607B68002B01D1012397E0B3
:103280007B6893F83D30DBB2002B06D17B680022CF
:1032900083F83C20786800F0D3F87B68022283F83A
:1032A0003D207B681B689B687A68126823F4804322
:1032B00023F0070393607B681A687B680433194620
:1032C000104602F029FA7B681B689B687B617B686B
:1032D0001B689B693B617B681B681B6AFB603B68E2
:1032E0001B687A6913437B613B6923F4407323F0C5
:1032F00003033B613B689A683B689B691B0213436D
:103300003A6913433B613B6923F4406323F00C03A8
:103310003B613B6923F4704323F0F0033B613B685E
:10332000DA683B68DB691B0213433A6913433B616C
:103330003B681B691A013B681B6A1B0313433A690C
:1033400013433B61FB6823F02203FB60FB6823F01F
:103350008803FB603B685A683B685B691B01134349
:10336000FA681343FB607B681B687A699A607B6824
:103370001B683A699A617B681B68FA681A627B6805
:10338000012283F846207B68012283F83E207B6877
:10339000012283F83F207B68012283F842207B686A
:1033A000012283F843207B68012283F83D2000231B
:1033B00018461837BD4680BD80B582B000AF786032
:1033C0007B68022283F83D207B681B681A6A41F201
:1033D00011131340002B0FD17B681B681A6A40F24F
:1033E00044431340002B07D17B681B681A687B6835
:1033F0001B6822F001021A60786800F02BF87B68E5
:10340000002283F846207B68002283F83E207B68F8
:10341000002283F83F207B68002283F842207B68EB
:10342000002283F843207B68002283F83D207B68DC
:10343000002283F83C20002318460837BD4680BD93
:1034400080B483B000AF786000BF0C37BD465DF834
:10345000047B704780B483B000AF786000BF0C3746
:10346000BD465DF8047B704780B584B000AF7860DE
:1034700039607B6893F83E30FB737B6893F83F308C
:10348000BB737B6893F842307B737B6893F843305F
:103490003B733B68002B10D1FB7B012B02D17B7B64
:1034A000012B01D0012369E07B68022283F83E20D2
:1034B0007B68022283F8422031E03B68042B10D164
:1034C000BB7B012B02D13B7B012B01D0012355E0BB
:1034D0007B68022283F83F207B68022283F8432026
:1034E0001DE0FB7B012B08D1BB7B012B05D17B7B36
:1034F000012B02D13B7B012B01D001233EE07B68F5
:10350000022283F83E207B68022283F83F207B68FA
:10351000022283F842207B68022283F843203B6822
:10352000002B03D03B68042B08D00FE07B681B689E
:1035300001220021184602F04BFD16E07B681B6853
:1035400001220421184602F043FD0EE07B681B684F
:1035500001220021184602F03BFD7B681B68012216
:103560000421184602F034FD00BF7B681B681A680E
:103570007B681B6842F001021A600023184610376E
:10358000BD4680BD80B582B000AF786039603B68D1
:10359000002B03D03B68042B08D00FE07B681B682E
:1035A00000220021184602F013FD16E07B681B681C
:1035B00000220421184602F00BFD0EE07B681B6818
:1035C00000220021184602F003FD7B681B680022E0
:1035D0000421184602F0FCFC00BF7B681B681A6AD5
:1035E00041F211131340002B0FD17B681B681A6A3C
:1035F00040F244431340002B07D17B681B681A68D4
:103600007B681B6822F001021A603B68002B02D025
:103610003B68042B38D13B68002B04D17B68012226
:1036200083F83E2013E03B68042B04D17B68012221
:1036300083F83F200BE03B68082B04D17B68012214
:1036400083F8402003E07B68012283F841203B6837
:10365000002B04D17B68012283F8422024E03B68E0
:10366000042B04D17B68012283F843201CE03B68D3
:10367000082B04D17B68012283F8442014E07B6886
:10368000012283F845200FE07B68012283F83E2069
:103690007B68012283F83F207B68012283F8422067
:1036A0007B68012283F84320002318460837BD4673
:1036B00080BD80B584B000AF786039607B6893F8D6
:1036C0003E30FB737B6893F83F30BB737B6893F8A5
:1036D00042307B737B6893F843303B733B68002B2D
:1036E00010D1FB7B012B02D17B7B012B01D001236D
:1036F00089E07B68022283F83E207B68022283F8FF
:10370000422031E03B68042B10D1BB7B012B02D15E
:103710003B7B012B01D0012375E07B68022283F8FB
:103720003F207B68022283F843201DE0FB7B012BB6
:1037300008D1BB7B012B05D17B7B012B02D13B7BCD
:10374000012B01D001235EE07B68022283F83E203A
:103750007B68022283F83F207B68022283F84220A4
:103760007B68022283F843203B68002B03D03B6830
:10377000042B10D01FE07B681B6801220021184633
:1037800002F026FC7B681B68DA687B681B6842F0E5
:103790000202DA602EE07B681B68012204211846D1
:1037A00002F016FC7B681B68DA687B681B6842F0D5
:1037B0000402DA601EE07B681B68012200211846C3
:1037C00002F006FC7B681B6801220421184602F007
:1037D000FFFB7B681B68DA687B681B6842F00202AB
:1037E000DA607B681B68DA687B681B6842F0040259
:1037F000DA6000BF7B681B681A687B681B6842F050
:1038000001021A60002318461037BD4680BD80B5FE
:1038100082B000AF786039603B68002B0FD17B68C5
:103820001B6800220021184602F0D2FB7B681B684F
:10383000DA687B681B6822F00202DA6030E03B68DD
:10384000042B0FD17B681B6800220421184602F06C
:10385000BFFB7B681B68DA687B681B6822F0040288
:10386000DA601DE07B681B6800220021184602F028
:10387000AFFB7B681B6800220421184602F0A8FBFE
:103880007B681B68DA687B681B6822F00202DA60DA
:103890007B681B68DA687B681B6822F00402DA60C8
:1038A0007B681B681A6A41F211131340002B0FD179
:1038B0007B681B681A6A40F244431340002B07D10F
:1038C0007B681B681A687B681B6822F001021A601B
:1038D0003B68002B02D03B68042B38D13B68002B9F
:1038E00004D17B68012283F83E2013E03B68042B5F
:1038F00004D17B68012283F83F200BE03B68082B52
:1039000004D17B68012283F8402003E07B68012218
:1039100083F841203B68002B04D17B68012283F8A7
:10392000422024E03B68042B04D17B68012283F809
:1039300043201CE03B68082B04D17B68012283F8FC
:10394000442014E07B68012283F845200FE07B6867
:10395000012283F83E207B68012283F83F207B68A8
:10396000012283F842207B68012283F84320002350
:1039700018460837BD4680BD80B586B000AFF860F8
:10398000B9607A603B60FB6893F83E30FB75FB687A
:1039900093F83F30BB75FB6893F842307B75FB684A
:1039A00093F843303B75BB68002B20D1FB7D022B85
:1039B00002D07B7D022B01D102233FE1FB7D012B55
:1039C00013D17B7D012B10D17B68002B02D03B8C67
:1039D000002B01D1012331E1FB68022283F83E2054
:1039E000FB68022283F842205DE0012326E1BB68E8
:1039F000042B20D1BB7D022B02D03B7D022B01D1B9
:103A000002231BE1BB7D012B13D13B7D012B10D188
:103A10003B68002B02D03B8C002B01D101230DE130
:103A2000FB68022283F83F20FB68022283F84320D0
:103A300039E0012302E1FB7D022B08D0BB7D022B84
:103A400005D07B7D022B02D03B7D022B01D10223CE
:103A5000F4E0FB7D012B24D1BB7D012B21D17B7DAB
:103A6000012B1ED13B7D012B1BD17B68002B05D088
:103A70003B68002B02D03B8C002B01D10123DDE001
:103A8000FB68022283F83E20FB68022283F83F2075
:103A9000FB68022283F84220FB68022283F843205D
:103AA00001E00123CAE0BB68002B03D0BB68042BF4
:103AB00033D065E0FB685B6A624ADA63FB685B6A85
:103AC000614A1A64FB685B6A604ADA64FB68586A98
:103AD000FB681B68343319467A683B8C10F0F3FAA4
:103AE0000346002B01D00123A8E0FB681B68DA68BD
:103AF000FB681B6842F40072DA60FB681B680122F5
:103B00000021184602F064FAFB681B681A68FB681B
:103B10001B6842F001021A608FE0FB689B6A494A09
:103B2000DA63FB689B6A484A1A64FB689B6A474AE7
:103B3000DA64FB68986AFB681B68383319463A6890
:103B40003B8C10F0C0FA0346002B01D0012375E036
:103B5000FB681B68DA68FB681B6842F48062DA6005
:103B6000FB681B6801220421184602F031FAFB6849
:103B70001B681A68FB681B6842F001021A605CE06F
:103B8000FB685B6A2F4ADA63FB685B6A2E4A1A6439
:103B9000FB685B6A2D4ADA64FB68586AFB681B683D
:103BA000343319467A683B8C10F08DFA0346002BAB
:103BB00001D0012342E0FB689B6A224ADA63FB687A
:103BC0009B6A214A1A64FB689B6A204ADA64FB6894
:103BD000986AFB681B68383319463A683B8C10F0CA
:103BE00072FA0346002B01D0012327E0FB681B6813
:103BF000DA68FB681B6842F40072DA60FB681B68D5
:103C0000DA68FB681B6842F48062DA60FB681B6854
:103C100001220021184602F0DBF9FB681B68012233
:103C20000421184602F0D4F9FB681B681A68FB6887
:103C30001B6842F001021A6000BF002318461837C3
:103C4000BD4680BD555500081D560008B3530008F9
:103C500080B582B000AF786039603B68002B14D12A
:103C60007B681B6800220021184602F0B1F97B68CE
:103C70001B68DA687B681B6822F40072DA607B6874
:103C80005B6A184610F0E7FA3FE03B68042B14D15A
:103C90007B681B6800220421184602F099F97B68B2
:103CA0001B68DA687B681B6822F48062DA607B68D4
:103CB0009B6A184610F0CFFA27E07B681B68002249
:103CC0000021184602F084F97B681B680022042159
:103CD000184602F07DF97B681B68DA687B681B6810
:103CE00022F40072DA607B681B68DA687B681B6804
:103CF00022F48062DA607B685B6A184610F0ABFAE7
:103D00007B689B6A184610F0A6FA7B681B681A6AE3
:103D100041F211131340002B0FD17B681B681A6A04
:103D200040F244431340002B07D17B681B681A689C
:103D30007B681B6822F001021A603B68002B02D0EE
:103D40003B68042B38D13B68002B04D17B680122EF
:103D500083F83E2013E03B68042B04D17B680122EA
:103D600083F83F200BE03B68082B04D17B680122DD
:103D700083F8402003E07B68012283F841203B6800
:103D8000002B04D17B68012283F8422024E03B68A9
:103D9000042B04D17B68012283F843201CE03B689C
:103DA000082B04D17B68012283F8442014E07B684F
:103DB000012283F845200FE07B68012283F83E2032
:103DC0007B68012283F83F207B68012283F8422030
:103DD0007B68012283F84320002318460837BD463C
:103DE00080BD80B584B000AF78607B681B68DB68FD
:103DF000FB607B681B681B69BB60BB6803F0020348
:103E0000002B20D0FB6803F00203002B1BD07B6843
:103E10001B686FF002021A617B6801221A777B68C7
:103E20001B689B6903F00303002B03D0786801F043
:103E3000E3F905E0786801F0D5F9786801F0F0F968
:103E40007B6800221A77BB6803F00403002B20D0A4
:103E5000FB6803F00403002B1BD07B681B686FF02A
:103E600004021A617B6802221A777B681B689B69CF
:103E700003F44073002B03D0786801F0BDF905E02E
:103E8000786801F0AFF9786801F0CAF97B68002220
:103E90001A77BB6803F00803002B20D0FB6803F0FF
:103EA0000803002B1BD07B681B686FF008021A61A7
:103EB0007B6804221A777B681B68DB6903F00303C5
:103EC000002B03D0786801F097F905E0786801F0DD
:103ED00089F9786801F0A4F97B6800221A77BB6839
:103EE00003F01003002B20D0FB6803F01003002B1D
:103EF0001BD07B681B686FF010021A617B68082278
:103F00001A777B681B68DB6903F44073002B03D0CE
:103F1000786801F071F905E0786801F063F9786874
:103F200001F07EF97B6800221A77BB6803F0010379
:103F3000002B0CD0FB6803F00103002B07D07B683B
:103F40001B686FF001021A61786801F037F9BB68ED
:103F500003F08003002B0CD0FB6803F08003002BE0
:103F600007D07B681B686FF080021A61786804F0E4
:103F7000A0F8BB6803F04003002B0CD0FB6803F0F3
:103F80004003002B07D07B681B686FF040021A616A
:103F9000786801F059F9BB6803F02003002B0CD0BE
:103FA000FB6803F02003002B07D07B681B686FF0D1
:103FB00020021A61786804F068F800BF1037BD4627
:103FC00080BD000080B586B000AFF860B9607A604F
:103FD0000023FB75FB6893F83C30012B01D10223D1
:103FE00048E0FB68012283F83C207B680C2B39D821
:103FF00001A252F823F000BF2D40000865400008E0
:1040000065400008654000083B4000086540000826
:104010006540000865400008494000086540000808
:10402000654000086540000857400008FB681B68B1
:10403000B968184601F0F6FB17E0FB681B68B96821
:10404000184601F055FC10E0FB681B68B96818467B
:1040500001F0BAFC09E0FB681B68B968184601F07A
:104060001DFD02E00123FB7500BFFB68002283F801
:104070003C20FB7D18461837BD4680BD80B586B014
:1040800000AFF860B9607A600023FB75FB6893F8B5
:104090003C30012B01D1022388E0FB68012283F828
:1040A0003C207B68002B1BD1FB681868BB68196833
:1040B000BB685A68BB68DB6801F0D2FDFB681B680F
:1040C0009A69FB681B6822F00C029A61FB681B6806
:1040D0009969BB689A68FB681B680A439A6160E04B
:1040E0007B68042B1CD1FB681868BB681968BB6827
:1040F0005A68BB68DB6801F04AFEFB681B689A6976
:10410000FB681B6822F440629A61FB681B6899692E
:10411000BB689B681A02FB681B680A439A6140E00F
:104120007B68082B1BD1FB681868BB681968BB68E3
:104130005A68BB68DB6801F097FEFB681B68DA69A8
:10414000FB681B6822F00C02DA61FB681B68D96906
:10415000BB689A68FB681B680A43DA6121E07B68E8
:104160000C2B1CD1FB681868BB681968BB685A68BF
:10417000BB68DB6801F0B4FEFB681B68DA69FB68AA
:104180001B6822F44062DA61FB681B68D969BB686E
:104190009B681A02FB681B680A43DA6101E001238D
:1041A000FB75FB68002283F83C20FB7D184618371E
:1041B000BD4680BD80B586B000AFF860B9607A605A
:1041C0000023FB75FB6893F83C30012B01D10223DF
:1041D000AEE0FB68012283F83C207B680C2B00F2E8
:1041E0009F8001A252F823F01D42000821430008DD
:1041F00021430008214300085D42000821430008D4
:1042000021430008214300089F4200082143000881
:104210002143000821430008DF420008FB681B68B7
:10422000B968184601F0FEFAFB681B689A69FB68DA
:104230001B6842F008029A61FB681B689A69FB6878
:104240001B6822F004029A61FB681B689969BB68CD
:104250001A69FB681B680A439A6164E0FB681B6883
:10426000B968184601F044FBFB681B689A69FB6853
:104270001B6842F400629A61FB681B689A69FB68DC
:104280001B6822F480629A61FB681B689969BB68AD
:104290001B691A02FB681B680A439A6143E0FB68CA
:1042A0001B68B968184601F08FFBFB681B68DA6968
:1042B000FB681B6842F00802DA61FB681B68DA6978
:1042C000FB681B6822F00402DA61FB681B68D9698D
:1042D000BB681A69FB681B680A43DA6123E0FB6864
:1042E0001B68B968184601F0D9FBFB681B68DA69DE
:1042F000FB681B6842F40062DA61FB681B68DA69DC
:10430000FB681B6822F48062DA61FB681B68D9696C
:10431000BB681B691A02FB681B680A43DA6102E08A
:104320000123FB7500BFFB68002283F83C20FB7D66
:1043300018461837BD4680BD80B58CB000AFF86018
:10434000B9607A603B60002387F82F307A683B6859
:104350009A4200F0BE80FB6893F83C30012B01D1FB
:104360000223B7E0FB68012283F83C20FB680222AD
:1043700083F83D20BB681B683B61BB685B687B6161
:10438000BB689B68BB61BB68DB68FB61BB681B6982
:104390007B62BB685B69BB627B68002B03D07B6878
:1043A000042B09D011E0FB681B6807F110021146CD
:1043B000184601F037FA0CE0FB681B6807F11002A1
:1043C0001146184601F094FA03E0012387F82F30D4
:1043D00000BF97F82F30002B70D13B68002B03D023
:1043E0003B68042B33D065E0FB681868BB689969AB
:1043F000BB68DA69BB681B6A01F032FCFB681B68AA
:104400009A69FB681B6822F00C029A61FB681B68C2
:104410009A68FB681B6822F070029A60FB681B6850
:104420009A68FB681B6842F050029A60FB681B6840
:104430009A68FB681B6822F007029A60FB681B6899
:104440009A68FB681B6842F006029A6036E0FB68D7
:104450001868BB689969BB68DA69BB681B6A01F0B8
:1044600096FCFB681B689A69FB681B6822F4406233
:104470009A61FB681B689A68FB681B6822F07002EF
:104480009A60FB681B689A68FB681B6842F06002D0
:104490009A60FB681B689A68FB681B6822F0070239
:1044A0009A60FB681B689A68FB681B6842F006020A
:1044B0009A6003E0012387F82F3000BFFB680122D8
:1044C00083F83D20FB68002283F83C2097F82F30CA
:1044D00000E0012318463037BD4680BD80B588B066
:1044E00002AFF860B9607A603B603B6A1B0A013337
:1044F00001933B6A00933B687A68B968F86800F0FA
:1045000007F80346FB75FB7D18461837BD4680BD8E
:1045100080B586B000AFF860B9607A603B60002378
:10452000FB75FB6893F84630DBB2022B01D1022306
:104530002BE1FB6893F84630DBB2012B0BD13B68D3
:10454000002B04D13B6A002B01D001231DE1FB6845
:10455000022283F846207B68B3F5804F00F0D880B4
:104560007B68B3F5804F00F2EE807B68B3F5005FA7
:1045700000F0B3807B68B3F5005F00F2E4807B68F5
:10458000B3F5805F00F08E807B68B3F5805F00F24A
:10459000DA807B68B3F5006F69D07B68B3F5006F94
:1045A00000F2D1807B68B3F5806F45D07B68B3F5AE
:1045B000806F00F2C8807B68B3F5807F04D07B6891
:1045C000B3F5007F1CD0BEE0FB681B6A714ADA635A
:1045D000FB681B6A704A1A64FB681B6A6F4ADA64DC
:1045E000FB68186A3968FB681B684C331A467B6A9B
:1045F0000FF069FD0346002B00F0A8800123C4E002
:10460000FB685B6A664ADA63FB685B6A654A1A6440
:10461000FB685B6A614ADA64FB68586A3968FB6860
:104620001B684C331A467B6A0FF04DFD0346002B86
:1046300000F08E800123A8E0FB689B6A584ADA6389
:10464000FB689B6A574A1A64FB689B6A534ADA64A0
:10465000FB68986A3968FB681B684C331A467B6AAA
:104660000FF031FD0346002B74D001238DE0FB6871
:10467000DB6A4B4ADA63FB68DB6A4A4A1A64FB6806
:10468000DB6A464ADA64FB68D86A3968FB681B68EB
:104690004C331A467B6A0FF016FD0346002B5BD0A5
:1046A000012372E0FB681B6B3D4ADA63FB681B6BFE
:1046B0003C4A1A64FB681B6B384ADA64FB68186B67
:1046C0003968FB681B684C331A467B6A0FF0FBFCA9
:1046D0000346002B42D0012357E0FB685B6B324A54
:1046E000DA63FB685B6B314A1A64FB685B6B2B4ACD
:1046F000DA64FB68586B3968FB681B684C331A46F0
:104700007B6A0FF0E0FC0346002B29D001233CE03C
:10471000FB689B6B264ADA63FB689B6B254A1A642D
:10472000FB689B6B1D4ADA64FB68986B3968FB6811
:104730001B684C331A467B6A0FF0C5FC0346002BFE
:1047400010D0012321E00123FB750CE000BF0AE03B
:1047500000BF08E000BF06E000BF04E000BF02E0C9
:1047600000BF00E000BFFB7D002B0DD1FB681B6884
:10477000B9683A6A0A439A64FB681B68D968FB689F
:104780001B687A680A43DA60FB7D18461837BD4615
:1047900080BD00BF85560008B3560008B35300081B
:1047A00045540008ED54000835810008598100087F
:1047B000CF560008FD56000880B584B000AF786081
:1047C00039600023FB733B68B3F5804F50D03B68E2
:1047D000B3F5804F52D83B68B3F5005F42D03B68D9
:1047E000B3F5005F4AD83B68B3F5805F34D03B68CF
:1047F000B3F5805F42D83B68B3F5006F26D03B68C5
:10480000B3F5006F3AD83B68B3F5806F18D03B68BA
:10481000B3F5806F32D83B68B3F5807F04D03B6836
:10482000B3F5007F06D029E07B681B6A18460FF0BD
:1048300012FD26E07B685B6A18460FF00CFD20E055
:104840007B689B6A18460FF006FD1AE07B68DB6AFE
:1048500018460FF000FD14E07B681B6B18460FF044
:10486000FAFC0EE07B685B6B18460FF0F4FC08E086
:104870007B689B6B18460FF0EEFC02E00123FB7394
:1048800000BFFB7B002B0CD17B681B68D9683B68A1
:10489000DA437B681B680A40DA607B68012283F890
:1048A0004620FB7B18461037BD4680BD80B588B0DA
:1048B00002AFF860B9607A603B603B6A1B0A013363
:1048C00001933B6A00933B687A68B968F86800F026
:1048D00007F80346FB75FB7D18461837BD4680BDBB
:1048E00080B586B000AFF860B9607A603B600023A5
:1048F000FB75FB6893F84630DBB2022B01D1022333
:104900002BE1FB6893F84630DBB2012B0BD13B68FF
:10491000002B04D13B6A002B01D001231DE1FB6871
:10492000022283F846207B68B3F5804F00F0D880E0
:104930007B68B3F5804F00F2EE807B68B3F5005FD3
:1049400000F0B3807B68B3F5005F00F2E4807B6821
:10495000B3F5805F00F08E807B68B3F5805F00F276
:10496000DA807B68B3F5006F69D07B68B3F5006FC0
:1049700000F2D1807B68B3F5806F45D07B68B3F5DA
:10498000806F00F2C8807B68B3F5807F04D07B68BD
:10499000B3F5007F1CD0BEE0FB681B6A714ADA6386
:1049A000FB681B6A704A1A64FB681B6A6F4ADA6408
:1049B000FB68186AFB681B684C3319463A687B6AC7
:1049C0000FF081FB0346002B00F0A8800123C4E018
:1049D000FB685B6A664ADA63FB685B6A654A1A646D
:1049E000FB685B6A614ADA64FB68586AFB681B68AB
:1049F0004C3319463A687B6A0FF065FB0346002B7F
:104A000000F08E800123A8E0FB689B6A584ADA63B5
:104A1000FB689B6A574A1A64FB689B6A534ADA64CC
:104A2000FB68986AFB681B684C3319463A687B6AD6
:104A30000FF049FB0346002B74D001238DE0FB6887
:104A4000DB6A4B4ADA63FB68DB6A4A4A1A64FB6832
:104A5000DB6A464ADA64FB68D86AFB681B684C3339
:104A600019463A687B6A0FF02EFB0346002B5BD099
:104A7000012372E0FB681B6B3D4ADA63FB681B6B2A
:104A80003C4A1A64FB681B6B384ADA64FB68186B93
:104A9000FB681B684C3319463A687B6A0FF013FBBE
:104AA0000346002B42D0012357E0FB685B6B324A80
:104AB000DA63FB685B6B314A1A64FB685B6B2B4AF9
:104AC000DA64FB68586BFB681B684C3319463A681C
:104AD0007B6A0FF0F8FA0346002B29D001233CE053
:104AE000FB689B6B264ADA63FB689B6B254A1A645A
:104AF000FB689B6B1D4ADA64FB68986BFB681B685C
:104B00004C3319463A687B6A0FF0DDFA0346002BF6
:104B100010D0012321E00123FB750CE000BF0AE067
:104B200000BF08E000BF06E000BF04E000BF02E0F5
:104B300000BF00E000BFFB7D002B0DD1FB681B68B0
:104B4000B9683A6A0A439A64FB681B68D968FB68CB
:104B50001B687A680A43DA60FB7D18461837BD4641
:104B600080BD00BF85560008B3560008B353000847
:104B7000555500081D560008358100085981000868
:104B8000CF560008FD56000880B584B000AF7860AD
:104B900039600023FB733B68B3F5804F50D03B680E
:104BA000B3F5804F52D83B68B3F5005F42D03B6805
:104BB000B3F5005F4AD83B68B3F5805F34D03B68FB
:104BC000B3F5805F42D83B68B3F5006F26D03B68F1
:104BD000B3F5006F3AD83B68B3F5806F18D03B68E7
:104BE000B3F5806F32D83B68B3F5807F04D03B6863
:104BF000B3F5007F06D029E07B681B6A18460FF0EA
:104C00002AFB26E07B685B6A18460FF024FB20E055
:104C10007B689B6A18460FF01EFB1AE07B68DB6A14
:104C200018460FF018FB14E07B681B6B18460FF05A
:104C300012FB0EE07B685B6B18460FF00CFB08E084
:104C40007B689B6B18460FF006FB02E00123FB73A9
:104C500000BFFB7B002B0CD17B681B68D9683B68CD
:104C6000DA437B681B680A40DA607B68012283F8BC
:104C70004620FB7B18461037BD4680BD80B483B00C
:104C800000AF786039607B6893F83C30012B01D12C
:104C9000022314E07B68012283F83C207B68022217
:104CA00083F83D207B681B683A685A617B68012263
:104CB00083F83D207B68002283F83C2000231846BF
:104CC0000C37BD465DF8047B7047000080B586B0A8
:104CD00000AFF860B9607A600023FB75FB6893F859
:104CE0003C30012B01D10223B8E0FB68012283F89C
:104CF0003C20FB68022283F83D20BB685B68002BE8
:104D000002D0012B09D021E0FB681B689A68FB6880
:104D10001B6822F47F429A601BE0BB68DB68002BB3
:104D200009D0FB68012283F83D20FB68002283F84C
:104D30003C20012392E0FB681868BB68D968BB6817
:104D40009A68BB681B6901F023F902E00123FB7537
:104D500000BFFB7D002B78D17B680C2B74D801A29F
:104D600052F823F0994D0008494E0008494E0008BA
:104D7000494E0008C54D0008494E0008494E00083C
:104D8000494E0008F14D0008494E0008494E000800
:104D9000494E00081D4E0008BB681B68002B08D058
:104DA000FB681B689A69FB681B6842F080029A6185
:104DB0004BE0FB681B689A69FB681B6822F0800265
:104DC0009A6142E0BB681B68002B08D0FB681B6837
:104DD0009A69FB681B6842F400429A6135E0FB68FF
:104DE0001B689A69FB681B6822F400429A612CE0F8
:104DF000BB681B68002B08D0FB681B68DA69FB687E
:104E00001B6842F08002DA611FE0FB681B68DA6908
:104E1000FB681B6822F08002DA6116E0BB681B6841
:104E2000002B08D0FB681B68DA69FB681B6842F43A
:104E30000042DA6109E0FB681B68DA69FB681B68FD
:104E400022F40042DA6100E000BFFB68012283F82F
:104E50003D20FB68002283F83C20FB7D1846183774
:104E6000BD4680BD80B584B000AF78603960002356
:104E7000FB737B6893F83C30012B01D10223B4E033
:104E80007B68012283F83C207B68022283F83D2066
:104E90007B681B689B68BB60BB6823F07703BB60C3
:104EA000BB6823F47F43BB607B681B68BA689A6069
:104EB0003B681B68B3F5005F3ED0B3F5005F00F2BE
:104EC0008780B3F5805F00F08680B3F5805F7FD880
:104ED000702B1AD0702B7BD8602B50D0602B77D8DA
:104EE000502B3CD0502B73D8402B58D0402B6FD830
:104EF000302B64D0302B6BD8202B60D0202B67D880
:104F0000002B5CD0102B5AD062E07B6818683B689D
:104F100099683B685A683B68DB6801F039F87B6840
:104F20001B689B68BB60BB6843F07703BB607B6812
:104F30001B68BA689A604FE07B6818683B6899689C
:104F40003B685A683B68DB6801F022F87B681B68A5
:104F50009A687B681B6842F480429A603CE07B68F8
:104F600018683B6859683B68DB681A4600F0E0FE49
:104F70007B681B685021184600F0EFFF2CE07B682F
:104F800018683B6859683B68DB681A4600F03CFFCC
:104F90007B681B686021184600F0DFFF1CE07B681F
:104FA00018683B6859683B68DB681A4600F0C0FE29
:104FB0007B681B684021184600F0CFFF0CE07B683F
:104FC0001A683B681B681946104600F0C6FF03E0EC
:104FD0000123FB7300E000BF7B68012283F83D20C2
:104FE0007B68002283F83C20FB7B18461037BD46C7
:104FF00080BD80B485B000AF786039607B681B6885
:105000005B68FB60FB6823F08003FB60FA683B6829
:105010001343FB607B681B68FA685A6000231846DC
:105020001437BD465DF8047B704780B582B000AF91
:10503000786039607B6893F83C30012B01D1022302
:1050400031E07B68012283F83C207B68022283F8F0
:105050003D203968786800F071FD0346002B09D0C7
:105060007B68012283F83D207B68002283F83C2086
:10507000012318E07B681B68DA687B681B6822F0F4
:105080004002DA607B681B68DA687B681B6822F480
:105090008042DA607B68012283F83D207B68002231
:1050A00083F83C20002318460837BD4680BD80B5F4
:1050B00082B000AF786039607B6893F83C30012B98
:1050C00001D1022331E07B68012283F83C207B6818
:1050D000022283F83D203968786800F02FFD0346EE
:1050E000002B09D07B68012283F83D207B680022D9
:1050F00083F83C20012318E07B681B68DA687B6832
:105100001B6842F04002DA607B681B68DA687B68E3
:105110001B6822F48042DA607B68012283F83D201C
:105120007B68002283F83C20002318460837BD46E0
:1051300080BD000080B485B000AF78603960002386
:10514000FB603B680C2B31D801A252F823F000BF62
:1051500085510008AD510008AD510008AD5100085F
:105160008F510008AD510008AD510008AD51000845
:1051700099510008AD510008AD510008AD5100082B
:10518000A35100087B681B685B6BFB600FE07B68CA
:105190001B689B6BFB600AE07B681B68DB6BFB603A
:1051A00005E07B681B681B6CFB6000E000BFFB68D0
:1051B00018461437BD465DF8047B704780B483B051
:1051C00000AF786000BF0C37BD465DF8047B7047C8
:1051D00080B483B000AF786000BF0C37BD465DF887
:1051E000047B704780B483B000AF786000BF0C3799
:1051F000BD465DF8047B704780B483B000AF786033
:1052000000BF0C37BD465DF8047B704780B483B0A7
:1052100000AF786000BF0C37BD465DF8047B704777
:1052200080B483B000AF786000BF0C37BD465DF836
:10523000047B704780B483B000AF786000BF0C3748
:10524000BD465DF8047B704780B483B000AF7860E2
:1052500000BF0C37BD465DF8047B704780B483B057
:1052600000AF786000BF0C37BD465DF8047B704727
:1052700080B483B000AF786000BF0C37BD465DF8E6
:10528000047B704780B483B000AF78607B6893F88C
:105290003D30DBB218460C37BD465DF8047B7047E5
:1052A00080B483B000AF78607B6893F83D30DBB2A8
:1052B00018460C37BD465DF8047B704780B483B058
:1052C00000AF78607B6893F83D30DBB218460C374E
:1052D000BD465DF8047B704780B483B000AF786052
:1052E0007B6893F83D30DBB218460C37BD465DF85D
:1052F000047B704780B483B000AF78607B6893F81C
:105300003D30DBB218460C37BD465DF8047B704774
:1053100080B483B000AF78607B6893F83D30DBB237
:1053200018460C37BD465DF8047B704780B483B0E7
:1053300000AF78607B681B7F18460C37BD465DF870
:10534000047B704780B485B000AF786039603B68FB
:10535000002B04D17B6893F83E30DBB213E03B684E
:10536000042B04D17B6893F83F30DBB20BE03B6841
:10537000082B04D17B6893F84030DBB203E07B68F4
:1053800093F84130DBB2FB73FB7B18461437BD4604
:105390005DF8047B704780B483B000AF78607B68B1
:1053A00093F84630DBB218460C37BD465DF8047BF7
:1053B000704780B584B000AF78607B689B6BFB6002
:1053C000FB685B6A7A689A4207D1FB6801221A7708
:1053D000FB68012283F83E202AE0FB689B6A7A681A
:1053E0009A4207D1FB6802221A77FB68012283F8F0
:1053F0003F201DE0FB68DB6A7A689A4207D1FB68B0
:1054000004221A77FB68012283F8402010E0FB6831
:105410001B6B7A689A4207D1FB6808221A77FB68EF
:10542000012283F8412003E0FB68012283F83D203C
:10543000F868FFF71DFFFB6800221A7700BF1037DE
:10544000BD4680BD80B584B000AF78607B689B6B43
:10545000FB60FB685B6A7A689A420BD1FB680122A9
:105460001A777B68DB69002B36D1FB68012283F851
:105470003E2031E0FB689B6A7A689A420BD1FB6858
:1054800002221A777B68DB69002B25D1FB68012299
:1054900083F83F2020E0FB68DB6A7A689A420BD1F0
:1054A000FB6804221A777B68DB69002B14D1FB6848
:1054B000012283F840200FE0FB681B6B7A689A4258
:1054C0000AD1FB6808221A777B68DB69002B03D1BD
:1054D000FB68012283F84120F868FFF7A1FEFB6812
:1054E00000221A7700BF1037BD4680BD80B584B05A
:1054F00000AF78607B689B6BFB60FB685B6A7A68D7
:105500009A4203D1FB6801221A7719E0FB689B6A73
:105510007A689A4203D1FB6802221A7710E0FB688E
:10552000DB6A7A689A4203D1FB6804221A7707E0A3
:10553000FB681B6B7A689A4202D1FB6808221A77D3
:10554000F868FFF777FEFB6800221A7700BF103774
:10555000BD4680BD80B584B000AF78607B689B6B32
:10556000FB60FB685B6A7A689A420FD1FB68012294
:105570001A777B68DB69002B46D1FB68012283F830
:105580003E20FB68012283F842203DE0FB689B6AD5
:105590007A689A420FD1FB6802221A777B68DB692E
:1055A000002B31D1FB68012283F83F20FB680122E8
:1055B00083F8432028E0FB68DB6A7A689A420FD1BF
:1055C000FB6804221A777B68DB69002B1CD1FB681F
:1055D000012283F84020FB68012283F8442013E075
:1055E000FB681B6B7A689A420ED1FB6808221A7717
:1055F0007B68DB69002B07D1FB68012283F841201F
:10560000FB68012283F84520F868FFF7F5FDFB6889
:1056100000221A7700BF1037BD4680BD80B584B028
:1056200000AF78607B689B6BFB60FB685B6A7A68A5
:105630009A4203D1FB6801221A7719E0FB689B6A42
:105640007A689A4203D1FB6802221A7710E0FB685D
:10565000DB6A7A689A4203D1FB6804221A7707E072
:10566000FB681B6B7A689A4202D1FB6808221A77A2
:10567000F868FFF7CBFDFB6800221A7700BF1037F0
:10568000BD4680BD80B584B000AF78607B689B6B01
:10569000FB60FB681B6ADB69002B03D1FB680122FE
:1056A00083F83D20F868FFF789FD00BF1037BD463D
:1056B00080BD80B584B000AF78607B689B6BFB6079
:1056C000F868FFF785FD00BF1037BD4680BD80B587
:1056D00084B000AF78607B689B6BFB60FB689B6B62
:1056E000DB69002B03D1FB68012283F83D20F868B9
:1056F000FFF7AAFD00BF1037BD4680BD80B584B05E
:1057000000AF78607B689B6BFB60F868FFF7A6FDD5
:1057100000BF1037BD4680BD80B485B000AF786053
:1057200039607B681B68FB607B68374A93420FD007
:105730007B68B3F1804F0BD07B68344A934207D02B
:105740007B68334A934203D07B68324A934208D144
:10575000FB6823F07003FB603B685B68FA681343E7
:10576000FB607B68284A93421BD07B68B3F1804F73
:1057700017D07B68254A934213D07B68244A934212
:105780000FD07B68234A93420BD07B68224A934216
:1057900007D07B68214A934203D07B68204A93421A
:1057A00008D1FB6823F44073FB603B68DB68FA6850
:1057B0001343FB60FB6823F080023B685B69134383
:1057C000FB603B689A687B68DA623B681A687B68B2
:1057D0009A627B680C4A934203D13B681A697B68E2
:1057E0001A637B681B6843F004027B681A607B685D
:1057F00001225A617B68FA681A6000BF1437BD46FF
:105800005DF8047B704700BF0000014000040040C9
:1058100000080040000C00400040014000440140EE
:105820000048014080B487B000AF786039607B6881
:105830001B6A7B617B681B6A23F001027B681A622A
:105840007B685B683B617B689B69FB60FB6823F05E
:105850007003FB60FB6823F00303FB603B681B687D
:10586000FA681343FB607B6923F002037B613B68AA
:105870009B687A6913437B617B681C4A93420CD115
:105880007B6923F008037B613B68DB687A6913431B
:105890007B617B6923F004037B617B68134A93423D
:1058A00011D13B6923F480733B613B6923F400739E
:1058B0003B613B685B693A6913433B613B689B69A9
:1058C0003A6913433B617B683A695A607B68FA68BE
:1058D0009A613B685A687B685A637B687A691A6286
:1058E00000BF1C37BD465DF8047B704700000140D7
:1058F00080B487B000AF786039607B681B6A7B61D9
:105900007B681B6A23F010027B681A627B685B6805
:105910003B617B689B69FB60FB6823F4E043FB60B1
:10592000FB6823F44073FB603B681B681B02FA684A
:105930001343FB607B6923F020037B613B689B681A
:105940001B017A6913437B617B681E4A93420DD128
:105950007B6923F080037B613B68DB681B017A690C
:1059600013437B617B6923F040037B617B68154AAD
:10597000934213D13B6923F480633B613B6923F479
:1059800000633B613B685B699B003A6913433B6181
:105990003B689B699B003A6913433B617B683A69AA
:1059A0005A607B68FA689A613B685A687B689A63B8
:1059B0007B687A691A6200BF1C37BD465DF8047BBC
:1059C000704700BF0000014080B487B000AF78602E
:1059D00039607B681B6A7B617B681B6A23F4807279
:1059E0007B681A627B685B683B617B68DB69FB6094
:1059F000FB6823F07003FB60FB6823F00303FB608C
:105A00003B681B68FA681343FB607B6923F40073EF
:105A10007B613B689B681B027A6913437B617B68EF
:105A20001D4A93420DD17B6923F400637B613B687F
:105A3000DB681B027A6913437B617B6923F4806313
:105A40007B617B68144A934213D13B6923F48053F2
:105A50003B613B6923F400533B613B685B691B017D
:105A60003A6913433B613B689B691B013A691343E5
:105A70003B617B683A695A607B68FA68DA613B6827
:105A80005A687B68DA637B687A691A6200BF1C37E0
:105A9000BD465DF8047B70470000014080B487B0CC
:105AA00000AF786039607B681B6A3B617B681B6A6A
:105AB00023F480527B681A627B685B687B617B6839
:105AC000DB69FB60FB6823F4E043FB60FB6823F4C5
:105AD0004073FB603B681B681B02FA681343FB6062
